:100000000C94B8010C94E9010C94E9010C94E901F9
:100010000C94E9010C94E9010C94E9010C94E901B8
:100020000C94E9010C94E9010C94E9010C94E901A8
:100030000C94E9010C94E9010C94E9010C94E90198
:100040000C94E9010C94E9010C94E9010C94E90188
:100050000C94E9010C94E9010C94E9010C94B71893
:100060000C94E9010C94D01C0C94061D0C94E9012D
:100070000C94E9010C94E9010C94E9010C94E90158
:100080000C94E9010C94E9010C94E9010C94E90148
:100090000C94E9010C94E9010C94E9010C94861785
:1000A0000C94E9010C94E9010C94E9010C94E90128
:1000B0000C94E9010C94E9010C94E9010C94DA1513
:1000C0000C94E9010C94E9010C94E9010C94E90108
:1000D0000C94E9010C94E9010C94E9010C94E901F8
:1000E0000C94E901F919FE19031A0D1A171A901A3E
:1000F000211A291A311A3B1A451A4F1A5E1A681A20
:10010000901A721A7C1A861AB21AB51AA41AA81A68
:10011000AE1AEC1AB91ABD1AC31AC71ACB1AD11AD9
:10012000D51AD91AEC1ADF1AE31AE71A05A84CCD2A
:10013000B2D44EB93836A9020C50B9918688083C21
:10014000A6AAAA2ABE000000803F0C94EC160C94CC
:10015000091C0C94EB010C94B21A0C94171A0C9411
:10016000671B0C94ED160C94B91A0C94DD160C94C4
:10017000C2160C9408130C94CC140C94291A0C94E9
:10018000301D0C94211A0C94CA160C94D11A0C949C
:10019000AE1A0C943B1A0C94A41A0C94E71A0C9403
:1001A0003A1D0C944F1A0C94B51A0C945E1A0C94C8
:1001B000681A0C94DF1A0C941A170C94D51A0C9424
:1001C000EC1A0C94FE190C94751B0C94031A0C94E5
:1001D0008D1D0C94901A0C94CB1A0C9459170C94F6
:1001E000E31A0C94B9160C945C1B0C94BD1A0C9475
:1001F000A81A0C94451A0C947C1A0C94F9190C94B6
:10020000721A0C94311A0C94C71A0C94C31A0C94D9
:10021000861A0C941D120C940D1A0C94891B0C94C4
:10022000D91A0C94E71B00000A0B02090C0D0E08EA
:1002300007030401000000000000000000000000AF
:1002400000000000000000000000000000000000AE
:10025000000012111000000000000000000000006B
:10026000000000000000000000000000010210205B
:1002700020080810204010204080020102010804DC
:100280000201010204081020408080402010080470
:1002900002018004020180402010080402010804C9
:1002A000020101020408102040800102040810200D
:1002B0004080050505050705080808080202020236
:1002C0000A0A0808040404040101010101010101F2
:1002D0000303030303030303040707070C0C0C0CBD
:1002E0000C0C0C0C020202020606060606060606A6
:1002F0000B0B0B0B0B0B0B0B000022002500280037
:100300002B002E003100340002010000050108011D
:100310000B0100002100240027002A002D003000DE
:10032000330001010000040107010A014E414E495A
:100330004E495459494E46CDCCCC3D0AD7233C17A3
:10034000B7D13877CC2B329595E6241FB14F0A00F0
:100350000020410000C84200401C4620BCBE4CCAE0
:100360001B0E5AAEC59D74001D12B91659173A1DC1
:1003700011241FBECFEFD1E2DEBFCDBF00E00CBF26
:100380001DE0A0E0B2E0E6E4F7E400E00BBF02C04D
:1003900007900D92AC39B107D9F726E1ACE9BDE081
:1003A00001C01D92A13BB207E1F713E0C0E7D3E023
:1003B00000E006C022970109FE010BBF0E94D9216F
:1003C000C836D10780E00807A9F70E947E1D0C946B
:1003D000A1230C94000080919C0D90919D0DA09103
:1003E0009E0DB0919F0D0196A11DB11D883E23E089
:1003F0009207A105B10548F480939C0D90939D0D43
:10040000A0939E0DB0939F0D089510929C0D109295
:100410009D0D10929E0D10929F0D8091A90D9091AF
:10042000AA0DA091AB0DB091AC0D0196A11DB11D0F
:100430008093A90D9093AA0DA093AB0DB093AC0D32
:1004400008952F923F924F925F926F927F928F9278
:100450009F92AF92BF92CF92DF92EF92FF920F9353
:100460001F93CF93DF93CDB7DEB72C970FB6F894D9
:10047000DEBF0FBECDBF6536710514F064E670E0D7
:1004800077FF02C060E070E028E5289FF001299F17
:10049000F00D1124E050FE4F212C312C91012F5FE3
:1004A0003F4F3A83298346895789208131816217DA
:1004B00073070CF45DC0461757070CF459C048E5A4
:1004C000489F9001499F300D112486E1829DA00133
:1004D000839D500D1124420F531FA981BA818A9F19
:1004E00080018B9F100D1124020F131F442443948D
:1004F000512C612C712C40505E4F5C874B87005013
:100500001E4F3C832B839B01442737FD4095542F7E
:100510002F83388749875A876B857C85660D771DC1
:10052000910180E090E0A901FB01E80FF91FC28072
:10053000D380215031094697AFEFCA16DA0699F3F6
:10054000C201880F991F800F911FE981FA8120E075
:1005500030E0FE83ED83DC01A20FB31F6D917C912F
:1005600031962A5E3F4F6F3FBFEF7B0729F4F1CFF3
:10057000769629803A8092CFEE24D7FCE094FE2C28
:1005800036E1349FF001359FF00D11244B815C81E1
:10059000E40FF51FE050FE4F80809180AA2497FC65
:1005A000A094BA2C2F81388549855A852819390994
:1005B0004A095B09882777FD8095982F6C197D097A
:1005C0008E099F090E94702126E1AD81BE812A9F7C
:1005D000F0012B9FF00D11244B815C81E40FF51F7E
:1005E000E050FE4F20813181442737FD4095542F44
:1005F000281939094A095B090E94A2212C0D3D1DC9
:100600004E1D5F1DB901C20180579B4E0E942F13E2
:1006100052E0650E711C8FEF481A580A96E0491691
:10062000510409F079CF2C960FB6F894DEBF0FBEB7
:10063000CDBFDF91CF911F910F91FF90EF90DF9091
:10064000CF90BF90AF909F908F907F906F905F9072
:100650004F903F902F900895CF92DF92EF92FF92AC
:100660000F931F93CF93DF936C01EB0179016F3FE1
:100670008FEF780731F44115510541F041305105B4
:1006800041F04F3F8FEF580731F409C0C0E0D0E090
:1006900002C0C4E6D0E05093F6134093F5138FEFF9
:1006A000E816F80661F4BE01C601DF91CF911F91F3
:1006B0000F91FF90EF90DF90CF900C94210201E911
:1006C00014E1B701C8010E9472130F5F1F4F84E14C
:1006D00006391807B1F7E7CFCF93DF93EB01DC01C1
:1006E000AA0FBB1FAD5EBB4E6D917C9182E196E17E
:1006F0000E94CB1D62E57DE082E196E10E94CB1D68
:10070000FE01EE0FFF1FEF5FFB4E6081718182E102
:1007100096E1DF91CF910C94D81DEF92FF920F9349
:100720001F93CF93DF938B017A01EC01CF56DB4E01
:100730002F3F8FEF380721F0B901CE010E947213CD
:100740000F3F8FEF1807A9F02FEF33E0D8010E9479
:10075000C72124E630E040E050E00E94A221B90128
:10076000CE01DF91CF911F910F91FF90EF900C94EC
:100770002F138FEFE816F80651F0B701CE01DF9185
:10078000CF911F910F91FF90EF900C945D13CE01CC
:10079000DF91CF911F910F91FF90EF900C945F1418
:1007A000CF92DF92EF92FF92CF93DF93C4E0D0E03D
:1007B0006C01EE24D7FCE094FE2C2FEF30E040E0FB
:1007C00050E064E670E0CE010E948D03C701B601DF
:1007D0000E942419219788F7DF91CF91FF90EF9025
:1007E000DF90CF900895CF93DF936130710521F4AE
:1007F000DF91CF910C94D003C0E0D0E02FEF30E038
:1008000040E050E060E070E0CE010E948D036CEBB0
:1008100072E080E090E00E9424192196C530D10555
:1008200069F7DF91CF9108950F931F93CF93DF93D3
:1008300065E274E082E196E10E94D81D60E070E01C
:1008400080E090E00E946C031092F6131092F51372
:1008500060E070E080E090E00E94210260918F14DF
:1008600070919014882777FD8095982F0E94241905
:1008700061E070E080E090E00E946C0381E090E035
:100880009093F6138093F51364E670E080E090E0B7
:100890000E94210260918F1470919014882777FD37
:1008A0008095982F0E94241960E070E080E090E02D
:1008B0000E946C031092F6131092F51360E070E042
:1008C00080E090E00E94210260918F14709190145A
:1008D000882777FD8095982F0E94241961E070E0A9
:1008E00086E090E00E946C038CE291E00E94D003CD
:1008F00060E070E086E090E00E946C0360E070E0F1
:100900008CE291E00E94F30361E070E086E090E009
:100910000E946C038CE291E00E94D00380918F14BE
:100920009091901497FD0196BC0175956795882765
:1009300077FD8095982F0E94241960E070E086E092
:1009400090E00E946C0360E070E08CE291E00E9415
:10095000F30361E070E086E090E00E946C038CE2BB
:1009600091E00E94D00380918F149091901497FD94
:100970000396BC017595679575956795882777FDF2
:100980008095982F0E94241960E070E080E090E04C
:100990000E946C031092F6131092F51360E070E061
:1009A00080E090E00E94210260918F147091901479
:1009B000882777FD8095982F0E94241900E010E089
:1009C00061E070E0C8010E946C03C1E0D0E0D09308
:1009D000F613C093F51364E670E0C8010E9421028B
:1009E00060918F1470919014882777FD8095982FCF
:1009F0000E94241960E070E0C8010E946C0310920C
:100A0000F6131092F51360E070E0C8010E94210215
:100A100060918F1470919014882777FD8095982F9E
:100A20000E9424190F5F1F4F0630110549F661E03F
:100A300070E085E090E00E946C03D093F613C093C1
:100A4000F51364E670E085E090E00E942102609179
:100A50008F1470919014882777FD8095982F0E94AD
:100A6000241960E070E085E090E00E946C03109231
:100A7000F6131092F51360E070E085E090E00E94BC
:100A8000210260918F1470919014882777FD8095D2
:100A9000982F0E94241961E070E085E090E00E94A8
:100AA0006C03D093F613C093F51364E670E085E011
:100AB00090E00E94210260918F1470919014882719
:100AC00077FD8095982F0E94241960E070E080E007
:100AD00090E00E946C031092F6131092F51360E000
:100AE00070E080E090E00E94210260918F1470918C
:100AF0009014882777FD8095982F0E94241961E033
:100B000070E086E090E00E946C038EEA91E00E9423
:100B1000D00380918F149091901497FD0196BC01A1
:100B200075956795882777FD8095982F0E942419E1
:100B300060E070E080E090E00E946C031092F61399
:100B40001092F51360E070E080E090E00E942102D6
:100B500080912B14811104C010928E1410928D1468
:100B600063E374E082E196E10E94D81D80912B142A
:100B70008823B1F061E474E082E196E10E94D81D1F
:100B800068E574E082E196E10E94D81D66E774E0B2
:100B900082E196E1DF91CF911F910F910C94D81DC6
:100BA000DF91CF911F910F91089581E994E10E9407
:100BB000201482E994E10E94201483E994E10E94C8
:100BC000201484E994E10E94201485E994E10C94B6
:100BD0002014F894880F991F87509C4EFC01808147
:100BE0000E94AE19789408954091231450912414D2
:100BF000E5E4FFE020E030E092918291892B29F436
:100C00002F5F3F4F283C3105B9F781E090E0241772
:100C1000350714F480E090E0089581E090E02091A1
:100C2000F7133091F8132230310511F480E090E091
:100C30008F569B4E0E940B1421E030E08A3F9105B5
:100C400014F020E030E0C9010895CF92DF92EF92D6
:100C5000FF920F931F936B017C010E94B0160091CD
:100C6000A40D1091A50D2091A60D3091A70D601B2C
:100C7000710B820B930B6C157D058E059F056CF037
:100C80000E94B0166093A40D7093A50D8093A60DDD
:100C90009093A70D81E090E002C080E090E01F916A
:100CA0000F91FF90EF90DF90CF9008950E94F40590
:100CB000892B09F444C00E940D06892B09F408957C
:100CC0006CEB72E080E090E00E942506892BB9F180
:100CD00064EC74E082E196E10E94D81D8091F713E4
:100CE0009091F8138530910534F401969093F813A0
:100CF0008093F71304C01092F8131092F71382E058
:100D000090E09093440F8093430F81E090E09093A4
:100D1000F6138093F51360ED74E082E196E10E9492
:100D2000CB1DE091F713F091F813EE0FFF1FED5E6E
:100D3000FB4E6081718182E196E10C94D81D08958B
:100D4000CF93DF93EC010097B9F48091F513909164
:100D5000F613892B71F166ED74E082E196E10E9451
:100D6000D81D8091F7139091F8131092F6131092FA
:100D7000F51360E070E019C081309105D1F48091E5
:100D8000F5139091F6130197A1F06FED74E082E1F5
:100D900096E10E94D81D8091F7139091F813D0939B
:100DA000F613C093F51364E670E0DF91CF910C94D5
:100DB0002102DF91CF9108950F931F93CF93DF937B
:100DC000C091430FD091440FC230D10509F45FC0E8
:100DD0009E01220F331FF901E355F24F40815181EB
:100DE000FC01E20FF31FA081B181A41BB50B2AE522
:100DF00030E00E94C7212FEF33E0241B350B44273E
:100E000037FD4095542F0E94A221CA01B9010E94CA
:100E1000D61F20EE3EE245E652E40E943B1F0E94B0
:100E2000ED20CD2B09F490582091A00D3091A10D0B
:100E30004091A20D5091A30D0E94D31E8B01D82F7B
:100E4000C92F20E030E0A9010E94371F87FD10C0A4
:100E500020E030E048EC52E4B8018D2F9C2F0E9436
:100E6000862018164CF400E010E0D8ECC2E404C070
:100E700000E010E0D0E0C0E0A8016D2F7C2F40938F
:100E8000A00D5093A10D6093A20D7093A30D6091DE
:100E9000A00D7091A10D8091A20D9091A30D0E94C3
:100EA000A81F2FEF30E04FEF5FEF8091F713909185
:100EB000F813DF91CF911F910F910C942C03EF92B7
:100EC000FF920F931F93CF93DF938C01EB017A0175
:100ED00069EE74E082E196E10E94CB1DF801608129
:100EE00071814AE050E082E196E10E948D1E6FEE32
:100EF00074E082E196E10E94CB1D6091AD0D70918E
:100F0000AE0D4AE050E082E196E10E948D1E67EF4F
:100F100074E082E196E10E94CB1D6091B10D709169
:100F2000B20D4AE050E082E196E10E948D1E6FEF23
:100F300074E082E196E10E94CB1D688170E04AE096
:100F400050E082E196E10E948D1E67E075E082E14B
:100F500096E10E94CB1DF801628173814AE050E066
:100F600082E196E10E948D1E63E175E082E196E1E7
:100F70000E94CB1D6091AF0D7091B00D4AE050E022
:100F800082E196E10E948D1E6BE175E082E196E1BF
:100F90000E94CB1D6091B30D7091B40D4AE050E0FA
:100FA00082E196E10E948D1E63E275E082E196E1A6
:100FB0000E94CB1D698170E04AE050E082E196E139
:100FC0000E948D1E6BE275E082E196E10E94CB1DCE
:100FD000F701EE0FFF1FEF5FFB4E6081718182E131
:100FE00096E1DF91CF911F910F91FF90EF900C94BC
:100FF000D81D80912614813079F526E330E042E057
:1010000050E065E070E081E994E10E94FB1327E382
:1010100030E046E050E063E070E082E994E10E9455
:10102000FB1328E330E048E050E067E070E083E93C
:1010300094E10E94FB1329E330E049E050E06AE0CC
:1010400070E084E994E10E94FB132AE330E04CE075
:1010500050E06BE070E030C0823091F526E330E084
:1010600042E050E065E070E081E994E10E94FB130A
:101070002AE330E04CE050E06BE070E082E994E17C
:101080000E94FB1329E330E049E050E06AE070E0A1
:1010900083E994E10E94FB1328E330E048E050E04C
:1010A00067E070E084E994E10E94FB1327E330E0FD
:1010B00046E050E063E070E085E994E10E94FB13B4
:1010C0008CE390E09093FA138093F9138DE390E012
:1010D0009093FC138093FB1308950E94F90760E03E
:1010E0008091F9130E94ED1A60E08091FB130C943B
:1010F000ED1A682F772767FD70958DE294E10E94C5
:101100007D2390936E1480936D1421E0892B09F454
:1011100020E0822F089580916D1490916E1460E00C
:1011200070E001960C94EC210E94790881110C94D6
:101130008B0860E070E080E89FEB08958091711467
:10114000909172148F3F2FEF920769F085309105CF
:1011500014F084E090E097FF02C080E090E090936C
:1011600072148093711480917714909178148F3F4A
:101170002FEF920769F08536910514F084E690E030
:1011800097FF02C080E090E09093781480937714EA
:1011900080917514909176148F3F2FEF920769F02C
:1011A0001816190614F481E090E097FF02C080E061
:1011B00090E09093761480937514809173149091BD
:1011C00074148F3F2FEF920769F08630910514F069
:1011D00085E090E097FF02C080E090E09093741467
:1011E000809373148091791490917A148F3F2FEF2C
:1011F000920771F08F3F910519F014F08FEF90E096
:1012000097FF02C080E090E090937A148093791465
:1012100080917714909178148F3F2FEF920769F0A7
:101220008536910514F084E690E097FF02C080E0D7
:1012300090E0909378148093771480917B14909130
:101240007C148F3F2FEF920769F08630910514F0E0
:1012500085E090E097FF02C080E090E090937C14DE
:1012600080937B1480917F14909180148F3F2FEF97
:10127000920769F08630910514F085E090E097FFC1
:1012800002C080E090E09093801480937F1480915E
:101290008114909182148F3F2FEF920769F0833071
:1012A000910514F082E090E097FF02C080E090E0AA
:1012B000909382148093811480918314909184146C
:1012C0008F3F2FEF920769F01816190614F481E08A
:1012D00090E097FF02C080E090E0909384148093A8
:1012E000831480917D1490917E148F3F2FEF92078D
:1012F00069F01816190614F481E090E097FF02C017
:1013000080E090E090937E1480937D14809185140A
:10131000909186148F3F2FEF920771F0813024E077
:10132000920714F080E094E097FF02C080E090E024
:1013300090938614809385148091871490918814DB
:101340008F3F2FEF920769F01816190614F481E009
:1013500090E097FF02C080E090E090938814809323
:1013600087148091891490918A148F3F2FEF9207F0
:1013700071F0813024E0920714F080E094E097FF50
:1013800002C080E090E090938A14809389140895BD
:1013900081E40E9494080E94A31F70937C146093C0
:1013A0007B1484E40E9494080E94A31F7093841409
:1013B0006093831486E40E9494080E94A31F709394
:1013C00072146093711487E40E9494080E94A31F12
:1013D000709374146093731488E40E9494080E94BC
:1013E000A31F70938214609381148DE40E9494086B
:1013F0000E94A31F7093801460937F148EE40E9458
:1014000094080E94A31F70938A146093891480E546
:101410000E9494080E94A31F70937814609377141D
:1014200083E50E9494080E94A31F70937A1460932E
:10143000791484E50E9494080E94A31F70938C1471
:1014400060938B1485E50E9494080E94A31F7093FB
:101450008614609385148FE30E9494080E94A31F52
:1014600070937E1460937D148FE40E94940820E0B2
:1014700030E0A9010E94371F811105C01092761437
:101480001092751425C083E40E94940820E030E097
:10149000A9010E94371F811103C081E090E014C0B0
:1014A0008091731490917414019691F081E090E012
:1014B0002091F5133091F613232B11F080E090E08A
:1014C0009093F6138093F51390937614809375148C
:1014D0000C949E08EDE2F4E1119284E1ED36F807F8
:1014E000D9F78FEF9FEF90937214809371149093BC
:1014F0007614809375149093781480937714909356
:101500007A14809379149093741480937314909345
:101510007C1480937B149093801480937F14909319
:101520007E1480937D149093821480938114909301
:1015300084148093831490938614809385149093DD
:1015400088148093871490938A14809389149093BD
:101550008C1480938B1408956DEC79E082E196E110
:101560000E94CB1D63E375E082E196E10E94D81DE5
:1015700066E675E082E196E10E94D81D6DEC79E0A7
:1015800082E196E10E94CB1D62EA75E082E196E17C
:101590000E94D81D64EB75E082E196E10E94D81D9F
:1015A0006CEC75E082E196E10E94D81D6DED75E06E
:1015B00082E196E10E94D81D6EEE75E082E196E12F
:1015C0000E94D81D64E076E082E196E10E94D81D79
:1015D00066E176E082E196E10E94D81D68E276E05D
:1015E00082E196E10E94D81D6DEC79E082E196E1FE
:1015F0000E94CB1D6BE376E082E196E10E94D81D4C
:1016000064EB75E082E196E10E94D81D69E576E021
:1016100082E196E10E94D81D64E976E082E196E1DC
:101620000E94D81D64EC76E082E196E10E94D81D0C
:101630006DEC79E082E196E10E94CB1D60EF76E0EF
:1016400082E196E10E94D81D64EB75E082E196E1AB
:101650000E94D81D61E077E082E196E10E94D81DEA
:1016600068E377E082E196E10E94D81D6DEC79E0B5
:1016700082E196E10E94CB1D60E777E082E196E18E
:101680000E94D81D64EB75E082E196E10E94D81DAE
:101690006FE877E082E196E10E94D81D6EEA77E07C
:1016A00082E196E10E94D81D65ED77E082E196E146
:1016B0000E94D81D6CEF77E082E196E10E94D81D70
:1016C00062E378E082E196E10E94D81D6FE578E060
:1016D00082E196E10E94D81D65E978E082E196E119
:1016E0000E94D81D6DEC79E082E196E10E94CB1D4D
:1016F00067EB78E082E196E10E94D81D64EB75E02B
:1017000082E196E10E94D81D61ED78E082E196E1E8
:101710000E94D81D67EF78E082E196E10E94D81D13
:1017200060E379E082E196E10E94D81D6EE579E000
:1017300082E196E10E94D81D60E879E082E196E1BD
:101740000E94D81D62EA79E082E196E10E94D81DEC
:101750006BEC79E082E196E10E94CB1D6FEC79E0C1
:1017600082E196E10E94D81D68ED79E082E196E180
:101770000E94D81D63EF79E082E196E10E94D81DB6
:101780006FE07AE082E196E10E94D81D66E27AE09D
:1017900082E196E10E94D81D66E57AE082E196E159
:1017A0000E94D81D67E77AE082E196E10E94D81D89
:1017B0006BEA7AE082E196E10E94D81D6CEC79E058
:1017C00082E196E10C94CB1D6FEC7AE082E196E128
:1017D0000E94D81DE0912614F0E0EE0FFF1FE75F96
:1017E000FB4E6081718182E196E10E94CB1D68EE23
:1017F0007AE082E196E10E94D81D80912914882325
:1018000021F1813029F0823069F469E07BE002C087
:101810006EEE7AE082E196E10E94D81D61E088E1F7
:101820000E94261B64E27BE082E196E10E94CB1DD0
:10183000E0912A14F0E0EE0FFF1FE95FFB4E60819C
:10184000718182E196E10E94D81D80912714811157
:101850000E94AC0A80912B14882391F062E474E01A
:1018600082E196E10E94D81D68E574E082E196E18C
:101870000E94D81D66E774E082E196E10C94D81DC1
:1018800008958BEE91E00C94CF158F929F92AF92BA
:10189000BF92CF92DF92EF92FF920F931F93CF935D
:1018A000DF93FB01EC01812C912C5401A0E0B0E00E
:1018B0008B0101501109A017B10774F4CA80DB80B5
:1018C000C992D992EE24D7FCE094FE2C8C0C9D1C7E
:1018D000AE1CBF1C1196EFCFDF01A150B048AA0F7C
:1018E000BB1FA80FB91F4D935C93BA01882777FDE2
:1018F0008095982F680D791D8A1D9B1D9F01442797
:1019000037FD4095542F0E94A221C901DF91CF914C
:101910001F910F91FF90EF90DF90CF90BF90AF900D
:101920009F908F900895AB012CE231E0BC01629F43
:10193000C001639F900D729F900D112466E970E0C5
:101940008B5B904F0C94450C0F931F93CF93DF93B9
:101950008C01EB0118821982FC01608171818091F8
:10196000AD0D9091AE0D6817790714F081E0888372
:10197000F801228133818091AF0D9091B00D28172D
:10198000390714F081E089838881811112C080E0D9
:1019900090E00E94930C9093B20D8093B10D209132
:1019A000211430912214280F391F3093AE0D20934B
:1019B000AD0D8981811115C0F8016281738181E0CB
:1019C00090E00E94930C9093B40D8093B30D2091FE
:1019D000211430912214280F391F3093B00D209319
:1019E000AF0DDF91CF911F910F910895CF93DF93AA
:1019F000DC0120E030E0FB0131972E173F074CF46B
:101A00001296CD91DC911397CD93DD932F5F3F4FCD
:101A1000F4CFFB01E150F048EE0FFF1FE80FF91F74
:101A200051834083DF91CF9108950F931F93CF93FC
:101A3000DF938C010E94E9052CE231E0029FE00176
:101A4000039FD00D129FD00D1124C356DE4EAC0162
:101A500066E970E0CE010E94F60CC65DDE4F88811B
:101A60009981DF91CF911F910F910895CF92DF92CD
:101A7000EF92FF920F931F93CF93DF9366E37BE088
:101A800082E196E10E94D81DC5E4DFE001E710E1A4
:101A900080E090E00E94150D6C018993999381E09C
:101AA00090E00E94150D7C01F801819391938F01C4
:101AB000F0E1C137DF0761F7B60180E090E00E94F6
:101AC000930CEC019093B20D8093B10DB70181E0BE
:101AD00090E00E94930C9093B40D8093B30D2091ED
:101AE000211430912214C20FD31FD093AE0DC09396
:101AF000AD0D280F391F3093B00D2093AF0D68E660
:101B00007BE082E196E1DF91CF911F910F91FF90F1
:101B1000EF90DF90CF900C94D81D80912914811103
:101B200008C080E090E00E94150D81E090E00E94E6
:101B3000150D6091C7127091C8124AE050E082E121
:101B400096E10E948D1E62E57DE082E196E10E94B1
:101B5000CB1D6091AD0D7091AE0D4AE050E082E179
:101B600096E10E948D1E62E57DE082E196E10E9491
:101B7000CB1D6091F3137091F4134AE050E082E1C1
:101B800096E10E948D1E62E57DE082E196E10E9471
:101B9000CB1D6091AF0D7091B00D4AE050E082E135
:101BA00096E10E948D1E62E57DE082E196E10E9451
:101BB000CB1D6DE082E196E10C94CD1DFC012081EE
:101BC00031814091AD0D5091AE0D241B350B37FF87
:101BD00002C020E030E0FC01828193814091AF0D92
:101BE0005091B00D841B950B97FF02C080E090E0F0
:101BF000821793071CF440E050E008C0281739070B
:101C00001CF441E050E002C042E050E068EC70E0BB
:101C100085EB9DE00C94F60CCF93DF9300D000D0C1
:101C2000CDB7DEB71D821E828091A80D811105C03F
:101C300081E08093A80D0E94360D80E090E00E9424
:101C4000150D9A83898381E090E00E94150D9C8395
:101C50008B83BE016B5F7F4FCE0101960E94A40C67
:101C6000CE0101960E94DE0D8091FD139091FE132E
:101C7000892B59F04091430F5091440FBE016B5F87
:101C80007F4FCE0101960E945F0780912A14811137
:101C90000E94560680912914813031F48091430FBF
:101CA0009091440F0E94A00680912914823021F463
:101CB000CE0101960E94DC0626960FB6F894DEBF90
:101CC0000FBECDBFDF91CF9108958091281481116F
:101CD0000E948D0D8091291481110E940C0E80911B
:101CE0007114909172148F3F2FEF920771F0209131
:101CF000791430917A144091751450917614609152
:101D00007714709178140E948D03809173149091D0
:101D100074148F3F2FEF920771F020917914309156
:101D20007A144091751450917614609177147091E3
:101D300078140E942C0380918D1490918E14892B1D
:101D400011F00E9414040C946A0AEF92FF920F9310
:101D50001F93CF93DF937C018B01C0E0D0E0F801AB
:101D600061918F01CE018E0D9F1D0E9490232196BF
:101D7000C830D105A1F788E090E0DF91CF911F91A5
:101D80000F91FF90EF900895EF92FF920F931F93A2
:101D9000CF93DF937C018B01C0E0D0E0F80161912B
:101DA0008F01CE018E0D9F1D0E9490232196C4307D
:101DB000D105A1F784E090E0DF91CF911F910F91C1
:101DC000FF90EF900895CF93DF93809171149091DD
:101DD0007214019609F477C06DEC79E082E196E126
:101DE0000E94CB1D66E87BE082E196E10E94CB1D5C
:101DF00060917114709172144AE050E082E196E1B2
:101E00000E94951E6EE87BE082E196E10E94CB1D68
:101E1000E0917514F0917614EF3F8FEFF80771F4AD
:101E200080917114909172148F569B4E0E940114F0
:101E3000E1E0F0E0882311F0E0E0F0E0EE0FFF1FBA
:101E4000EF5FFB4E6081718182E196E10E94D81DB7
:101E500069E97BE082E196E10E94CB1D60917714F5
:101E6000709178146F3F2FEF720739F04AE050E01D
:101E700082E196E10E94951E06C068EA7BE082E15D
:101E800096E10E94D81D6DEA7BE082E196E10E9416
:101E9000CB1D6091791470917A146F3F8FEF7807A2
:101EA00009F03DC280917114909172148F569B4E2F
:101EB0000E9416144AE050E0682F82E196E1DF911B
:101EC000CF910C94BA1E8091731490917414019662
:101ED00009F480C060ED74E082E196E10E94CB1DC0
:101EE000E0917314F0917414EE0FFF1FED5EFB4E42
:101EF0006081718182E196E10E94D81D6EE87BE0ED
:101F000082E196E10E94CB1DE0917514F091761468
:101F1000EF3F8FEFF80739F0EE0FFF1FEF5FFB4E3B
:101F20006081718102C068EA7BE082E196E10E94F3
:101F3000D81D69E97BE082E196E10E94CB1D6091AA
:101F40007714709178146F3F2FEF720751F48091DE
:101F500075149091761424E6289FB001299F700D86
:101F600011244AE050E082E196E10E94951E6DEA5C
:101F70007BE082E196E10E94CB1D60917914709123
:101F80007A146F3F8FEF780739F04AE050E082E132
:101F900096E10E94951E16C081E090E02091731496
:101FA000309174142230310511F480E090E08F56A6
:101FB0009B4E0E9416144AE050E0682F82E196E1A1
:101FC0000E94BA1E6DEC79E082E196E1DF91CF913B
:101FD0000C94CB1D80917D1490917E14019621F07C
:101FE000DF91CF910C94AC0A80917B1490917C147A
:101FF0008F3F2FEF920709F477C082309105B9F136
:102000002CF4009779F0019711F1FCC08330910511
:1020100009F43DC0059709F0F5C00E94D5056FE0B1
:102020007CE0ECC081E090912B14911180E08093D2
:102030002B1490E090938E1480938D1464EB7BE0CE
:1020400082E196E10E94CB1DE0912B14D0C081E08B
:1020500090912714911180E08093271467EC7BE026
:1020600082E196E10E94CB1DE0912714C0C081E07F
:1020700090912814911180E0809328146CEE7BE0FD
:1020800082E196E10E94CB1DE0912814B0C081E06E
:1020900090912C14911180E080932C1467E07CE0E7
:1020A00082E196E10E94CB1DE0912C14F0E0EE0F4E
:1020B000FF1FE15FFB4E6081718182E196E10E942A
:1020C000D81DC1E9D4E180912C14882321F0CE01E0
:1020D0000E94361403C0CE010E942C14219684E184
:1020E000C639D80781F78EC080917F1490918014F3
:1020F0008F3F2FEF920709F48DC082309105E1F0F8
:102100005CF4009779F0019709F063C081E0809357
:1021100029146AEB77E015C083309105D9F0049754
:10212000D1F157C0109229146BE17CE082E196E175
:102130000E94D81D60E00AC082E08093291461EEFD
:1021400077E082E196E10E94D81D61E088E10E947B
:10215000261B3FC0809129148823D9F181E090E0AB
:102160002091FD133091FE13232B11F080E090E0BD
:102170009093FE138093FD136FE27CE082E196E181
:102180000E94CB1DE091FD13F091FE13EE0FFF1F97
:10219000E95FFB4E18C0809129148823D1F081E0BB
:1021A00090912A14911180E080932A1464E27BE0DC
:1021B00082E196E10E94CB1DE0912A14F0E0EE0F3F
:1021C000FF1FE15FFB4E6081718182E196E10E9419
:1021D000D81D80917F1490918014049799F064E247
:1021E0007BE082E196E10E94CB1DE0912A14F0E0B1
:1021F000EE0FFF1FE95FFB4E6081718182E196E186
:102200000E94D81D65E274E184E190E0DF91CF91F6
:102210000C94A50E80918114909182148F3F2FEF22
:102220009207E1F0009751F0809326140E946D0808
:1022300065E274E184E190E00E94A50E68E47CE030
:1022400082E196E10E94CB1DE0912614F0E0EE0FB2
:10225000FF1FE75FFB4E6081718114C08091831482
:1022600090918414892BA1F481E090E090938E14D6
:1022700080938D1461E57CE082E196E10E94D81D97
:102280006BE57CE082E196E1DF91CF910C94D81D63
:1022900080918514909186148F3F2FEF9207B9F0AB
:1022A000009751F0909322148093211461E274E11D
:1022B0008EE190E00E94C40E6AEA7CE082E196E141
:1022C0000E94CB1D609121147091221428C080912E
:1022D000891490918A14019621F0DF91CF910C948A
:1022E000360D80918B1490918C148F3F2FEF9207B5
:1022F000F1F0009751F0909324148093231461E23D
:1023000074E18EE190E00E94C40E65EC7CE082E115
:1023100096E10E94CB1D60912314709124144AE031
:1023200050E082E196E1DF91CF910C94951EDF9110
:10233000CF91089560EE7CE082E196E10E94CB1D92
:1023400081E0809326148093271410922914109210
:10235000281480932A1480932B1480932C14809338
:10236000251488EC90E0909322148093211484E645
:1023700090E0909324148093231465E274E184E147
:1023800090E00E94A50E61E274E18EE190E00E946F
:10239000C40E68E67BE082E196E10C94D81D0F93B1
:1023A0001F93CF93DF9301E214E1CEE1D0E0CE01A1
:1023B0000E948823F80181938F012196C232D105B2
:1023C000B1F705E214E1C4E1D0E0CE010E94882318
:1023D000F80181938F012196CC31D105B1F780911D
:1023E0002514813011F00E949A111092F813109266
:1023F000F71380912B1490E090938E1480938D149A
:10240000DF91CF911F910F910C946A0A26E040E072
:1024100056E960E070E082E196E10E946E1C6EEF8A
:102420007CE082E196E10E94D81D0E94410C0E944E
:10243000CF110E946D080C94E40BCF93DF93C1E998
:10244000D4E1CE010E941A13219684E1C639D8073F
:10245000C1F710928E1410928D1480E293E0909345
:10246000901480938F141092701410926F148FEF49
:102470009FEF9093721480937114909374148093CF
:1024800073149093761480937514909378148093BA
:10249000771490937A148093791490937C1480939A
:1024A0007B1490937E1480937D149093801480937A
:1024B0007F1490938214809381149093841480935A
:1024C000831490938614809385149093881480933A
:1024D000871490938A148093891490938C1480931A
:1024E0008B14109225142FEF209326142093271479
:1024F000209328142093291420932A1420932B141A
:1025000020932C14909322148093211490932414DC
:102510008093231486E0E1E1F4E0A1E0B4E10190CE
:102520000D928A95E1F78AEA97E0909308148093D8
:10253000071485E594E090930A148093091486E0CB
:102540009DE090930C1480930B148CE09DE090938D
:102550000E1480930D1481E19DE0909310148093EC
:102560000F148AE19DE090931214809311148EE071
:10257000E7E1F4E0A3E1B4E101900D928A95E1F77F
:102580001092FE131092FD13109200141092FF137C
:10259000DF91CF9108950F931F93CF93DF93CDE2F7
:1025A000D4E18E010D52144182E196E10E945C1B40
:1025B0001816190664F461E070E080E090E00E9473
:1025C000241982E196E10E94751B8993EACF0115D7
:1025D0001105C9F0F801E35DFB4E10826DEC79E066
:1025E00082E196E10E94CB1D6DE274E182E196E109
:1025F0000E94D81D80916F14909170140196909351
:10260000701480936F14DF91CF911F910F910895F3
:102610000E94CB1280916F1490917014009749F032
:1026200001979093701480936F140E94C8090C94C2
:10263000E30E0895FC018081863040F480912F15CF
:1026400091E0980F90932F15808308958FEF8083EA
:102650006EE27DE082E196E10E94D81DFFCFDC01B1
:10266000EC914E2F50E0B9E1EB9FF0011124E756B9
:10267000FB4E838994896817790738F02589368954
:10268000CB012617370708F4C90129E1249FF0017F
:10269000259FF00D1124E756FB4E968785872785E9
:1026A0003089821B930B928B818B2617370718F486
:1026B00081E08483089514820895DC01EC91B9E1EE
:1026C000EB9FF0011124E756FB4E6483611103C0B8
:1026D0008389948904C0613021F48589968996871D
:1026E00085870895DC01EC912E2F30E0B9E1EB9F56
:1026F000F0011124E756FB4E818592856817790712
:1027000028F0838594858617970708F4BC0189E132
:10271000829FF001839FF00D1124E756FB4E7683D4
:1027200065830895DF92EF92FF920F931F93CF93EB
:10273000DF93EC01E62EF42E122F8881863008F00C
:1027400051C061E08E2D0E94ED1A61E08F2D0E9434
:10275000ED1A60E0812F0E94ED1AE88189E1D82E00
:10276000DE9EF0011124E756FB4EE082F1821283D7
:10277000008F11E0178B86E990E0948B838B8BE9B7
:1027800093E0968B858B83E690E0928781878FEF2D
:1027900090E0948783876FEF70E0CE010E94721300
:1027A00066E970E0CE010E942F13E881DE9EF00101
:1027B0001124E756FB4E148280919814811108C0B1
:1027C0008CEC94E10E94CA150E9491161093981403
:1027D000E88189E1E89FF0011124E456FB4E8081F5
:1027E000816080838881DF91CF911F910F91FF904D
:1027F000EF90DF9008950F9300E00E9492130F91E5
:102800000895DC01EC91B9E1EB9FF0011124E7564A
:10281000FB4E84810895DC01EC91B9E1EB9FF0015E
:102820001124E756FB4E878590890895DC01EC91D1
:10283000B9E1EB9FF0011124E756FB4E8581089525
:10284000DC01EC91B9E1EB9FF0011124E756FB4E5E
:10285000678570890C942F13DC01EC91B9E1EB9F33
:10286000F0011124E756FB4E178A0895DC01EC9124
:10287000B9E1EB9FF0011124E756FB4E81E0878B15
:102880000895DC01EC91B9E1EB9FF0011124E756CA
:10289000FB4E638974890C942F13DC01EC91B9E130
:1028A000EB9FF0011124E756FB4E658976890C9465
:1028B0002F13611102C00C9441140C944D14DC01CF
:1028C000EC91B9E1EB9FF0011124E756FB4E61E07A
:1028D0002481211160E00C9459141F93CF93DF934E
:1028E00029E1289FF001299FF00D1124E756FB4EA6
:1028F0002185328544275527421B530B64177507E2
:1029000084F42385348544275527421B530B6417D1
:10291000750710F4B90103C071956195710910E054
:102920000FC0261737073CF4238534852617370751
:1029300030F4B90104C010E060E070E001C011E0C3
:1029400029E1289FF001299FF00D1124E756FB4E45
:1029500070876783208D222311F021E0122729E15F
:10296000289FE001299FD00D1124DE01A10FB11D88
:10297000A756BB4E8C910E94D31981E08127FE019E
:10298000E80FF11DE756FB4E60E070E08081DF91BB
:10299000CF911F910C94D319AF92BF92CF92DF9237
:1029A000EF92FF920F931F93CF93DF9380912F1598
:1029B000882309F4E4C0209196143091971490E094
:1029C0000197281739073CF42F5F3F4F3093971436
:1029D0002093961404C0109297141092961480912C
:1029E00096149091971419E1189FE001199FD00D4A
:1029F0001124C756DB4E8A810E94AE19988B8F87AF
:102A0000C0919614D09197141C9FF0011D9FF00D5A
:102A10001124E756FB4E808D882341F08FEF93E021
:102A200027853089821B930B908B878789E18C9F48
:102A3000F0018D9FF00D1124E756FB4EA584B6845E
:102A400087859089A81AB90AB28AA18A6581768198
:102A5000B7FE03C001E010E002C00FEF1FEFC50199
:102A6000B7FE04C0882799278A199B0984319105EC
:102A70000CF452C02BEAA216B1040CF04FC026E5AC
:102A8000A2162FEFB20624F471956195710946C024
:102A90008B3A91050CF040C080E090E00E94D41F7A
:102AA00020E030E046E153E40E943B1F6B017C01D3
:102AB00084E1809FB001819F700D11246A0D7B1D00
:102AC000882777FD8095982F0E94D61F9B01AC0127
:102AD000C701B6010E948A206B017C0189E18C9FAD
:102AE000F0018D9FF00D1124E756FB4E81859285F4
:102AF000089FB001099F700D189F700D112480E090
:102B000090E00E94D41F9B01AC01C701B6010E9456
:102B1000D21E0E94A31F02C060E070E089E18C9F7A
:102B2000F0018D9FF00D1124E756FB4E238534856F
:102B300088279927821B930B681779072CF0CB0104
:102B4000261737070CF4C90129E12C9FF0012D9FAE
:102B5000F00D1124E756FB4E2789211102C080E0B9
:102B600090E0BC01CE01DF91CF911F910F91FF90BA
:102B7000EF90DF90CF90BF90AF900C946D14DF91E9
:102B8000CF911F910F91FF90EF90DF90CF90BF906A
:102B9000AF900895909341158093401508959093B8
:102BA0003F1580933E1581E090E090933D15809312
:102BB0003C1508951F920F920FB60F9211240BB679
:102BC0000F920F931F932F933F934F935F936F93A6
:102BD0007F938F939F93AF93BF93EF93FF938091D6
:102BE000381590913915A0913A15B0913B15019681
:102BF000A11DB11D8093381590933915A0933A15F6
:102C0000B0933B15409134155091351560913615B0
:102C1000709137158C019D01041B150B260B370B8A
:102C20000A3011052105310534F180933415909354
:102C30003515A0933615B0933715809142159091B4
:102C40004315A0914415B09145150196A11DB11DE4
:102C50008093421590934315A0934415B093451566
:102C600080913C1590913D15892B29F0E0913E15FE
:102C7000F0913F1519958091381590913915A091D3
:102C80003A15B0913B154091301550913115609136
:102C90003215709133158C019D01041B150B260B09
:102CA000370B02331105210531056CF08093301587
:102CB00090933115A0933215B0933315E0914015E0
:102CC000F09141151995FF91EF91BF91AF919F91AF
:102CD0008F917F916F915F914F913F912F911F91B4
:102CE0000F910F900BBE0F900FBE0F901F90189575
:102CF000E1E8F0E08081887F81608083E1EBF0E0B3
:102D00008081887F81608083E1E9F0E08081887F35
:102D100081608083E1EAF0E08081887F8160808348
:102D200008950E947816F89410922001E1E2F1E0F3
:102D3000108210922501109224018CED95E0909361
:102D4000290180932801808188608083808181604F
:102D50008083E3E7F0E08081826080837894089547
:102D600060914215709143158091441590914515DD
:102D7000089510924615109247151092481510921A
:102D8000491508958091791590E020917A15821B5C
:102D90009109089520917A1580917915281750F49A
:102DA000E22FF0E0E558FA4E808190E02F5F20930B
:102DB0007A1508958FEF9FEF0895E0917A1580912D
:102DC0007915E81730F4F0E0E558FA4E808190E08C
:102DD00008958FEF9FEF08950895CF92DF92EF92BD
:102DE000FF920F931F93CF93DF937C01CB018A0156
:102DF00020915615222389F0EB016B01C40ED51EDC
:102E0000CC15DD0569F06991D701ED91FC91019038
:102E1000F081E02DC7011995F3CF642F0E945D1753
:102E2000C801DF91CF911F910F91FF90EF90DF903C
:102E3000CF900895CF93DF931F92CDB7DEB769830C
:102E4000209156152223D1F020915715203240F0C1
:102E500021E030E0FC013383228380E090E015C064
:102E600080915815E82FF0E0E75AFA4E9981908347
:102E70008F5F809358158093571505C061E0CE0190
:102E800001960E945D1781E090E00F90DF91CF9155
:102E90000895FC011382128248EE53E060E070E076
:102EA000448355836683778380E79DE091838083A5
:102EB00008958AE495E10C944917613298F42091C1
:102EC0000816243089F46093BD15FC018FEB95E161
:102ED000DC012A2F281B261718F421912D93F9CFF6
:102EE00080E0089581E0089582E0089585ED809363
:102EF000BC008091BC0084FDFCCF109208160895A0
:102F000085EC8093BC001092081608951F920F92D2
:102F10000FB60F9211240BB60F922F933F934F933E
:102F20005F936F937F938F939F93AF93BF93EF9331
:102F3000FF938091B900887F803609F49CC068F5C2
:102F4000883209F45BC090F4803109F454C038F43D
:102F5000882309F4F5C0883009F44DC0F5C08831E4
:102F600009F44CC0803209F45DC0EEC0803409F42D
:102F700068C048F4803309F455C0883309F0E4C0D0
:102F800080939B15A8C0803509F44FC0883509F49B
:102F90005DC0883409F0D8C0D5C0883909F4C6C0EE
:102FA000A8F4883709F467C038F4883609F463C098
:102FB000803709F460C0C8C0883809F4B7C08039C8
:102FC00009F45FC0803809F0BFC05BC0803B09F4E2
:102FD00085C038F4803A09F466C0883A09F47EC0A6
:102FE000B3C0803C09F4A6C0883C09F4A3C0883B68
:102FF00009F489C0A9C08091071610C09091E0150E
:103000008091DF15981770F5E091E01581E08E0F43
:103010008093E015F0E0EF51FA4E80818093BB0081
:1030200085EC85C080939B158DC0E091E01581E013
:103030008E0F8093E0158091BB00F0E0EF51FA4EC7
:1030400080839091E0158091DF156DC0E091E015CF
:1030500081E08E0F8093E0158091BB00F0E0EF518E
:10306000FA4E80838091061681116CC081E08093B6
:10307000051684EA60C083E08093081610929C15C0
:10308000CFCF80919C15803208F050C0E0919C1504
:1030900081E08E0F80939C158091BB00F0E0E35699
:1030A000FA4E8083BDCF80919C15803230F4E09140
:1030B0009C15F0E0E356FA4E10820E94761760915C
:1030C0009C1570E0E0910116F09102168DE995E1F2
:1030D000199510929C150E94801736C084E0809349
:1030E00008161092BE151092BD15E0910316F091CE
:1030F000041619958091BD15811105C081E080935A
:10310000BD151092BF15E091BE1581E08E0F809322
:10311000BE15F0E0E154FA4E80818093BB0090919F
:10312000BE158091BD15981708F47ACF85E8809375
:10313000BC000AC085EC8093BC001092081604C045
:1031400010929B150E947617FF91EF91BF91AF915E
:103150009F918F917F916F915F914F913F912F91AF
:103160000F900BBE0F900FBE0F901F9018951F92DF
:103170000F920FB60F9211242F933F938F939F932B
:10318000AF93BF9380910A1690910B16A0910C16E5
:10319000B0910D163091091623E0230F2D3720F43E
:1031A0000196A11DB11D05C026E8230F0296A11DA1
:1031B000B11D2093091680930A1690930B16A093C5
:1031C0000C16B0930D1680910E1690910F16A091CB
:1031D0001016B09111160196A11DB11D80930E1607
:1031E00090930F16A0931016B0931116BF91AF9144
:1031F0009F918F913F912F910F900FBE0F901F9035
:1032000018953FB7F89480910E1690910F16A091E3
:103210001016B091111626B5A89B05C02F3F19F0C6
:103220000196A11DB11D3FBF6627782F892F9A2FC8
:10323000620F711D811D911D42E0660F771F881F6F
:10324000991F4A95D1F70895CF92DF92EF92FF929E
:10325000CF93DF936B017C010E940119EB01C11434
:10326000D104E104F10489F00E94D11E0E940119E9
:103270006C1B7D0B683E734090F381E0C81AD10847
:10328000E108F108C851DC4FEACFDF91CF91FF9000
:10329000EF90DF90CF900895789484B5826084BDDC
:1032A00084B5816084BD85B5826085BD85B581604A
:1032B00085BDEEE6F0E0808181608083E1E8F0E0AA
:1032C0001082808182608083808181608083E0E8D9
:1032D000F0E0808181608083E1EBF0E080818460B8
:1032E0008083E0EBF0E0808181608083E1E9F0E0C1
:1032F000808182608083808181608083E0E9F0E06A
:10330000808181608083E1EAF0E080818260808357
:10331000808181608083E0EAF0E080818160808349
:10332000E1E2F1E08081826080838081816080833E
:10333000E0E2F1E0808181608083EAE7F0E0808173
:1033400084608083808182608083808181608083CB
:103350008081806880831092C1000895863308F0D0
:10336000865320917B00982F9870277F922B909303
:103370007B0087702091100490E4299F9001112414
:10338000822B80937C0080917A00806480937A0005
:1033900080917A0086FDFCCF8091780020917900A1
:1033A00090E0922B08951F93CF93DF93182FEB019A
:1033B00061E00E94ED1A209711F460E004C0CF3F55
:1033C000D10539F461E0812FDF91CF911F910C94E9
:1033D000261BE12FF0E0EA5DFD4F449150E0FA0139
:1033E0003197E231F10508F09BC0EE58FF4F0C9485
:1033F000C12184B5806884BDC7BD97C084B5806293
:1034000084BDC8BD92C08091800080688093800098
:10341000D0938900C093880088C08091800080622A
:1034200080938000D0938B00C0938A007EC08091EF
:103430008000886080938000D0938D00C0938C00C2
:1034400074C08091B00080688093B000C093B300D6
:103450006CC08091B00080628093B000C093B400D3
:1034600064C080919000806880939000D093990010
:10347000C09398005AC08091900080628093900021
:10348000D0939B00C0939A0050C0809190008860B8
:1034900080939000D0939D00C0939C0046C0809183
:1034A000A00080688093A0008091A0008F7B809313
:1034B000A000D093A900C093A80037C08091A000BD
:1034C00080628093A000D093AB00C093AA002DC06F
:1034D0008091A00088608093A000D093AD00C0933D
:1034E000AC0023C080912001806880932001D0939C
:1034F0002901C093280119C0809120018062809326
:103500002001D0932B01C0932A010FC0809120018C
:10351000886080932001D0932D01C0932C0105C0B9
:10352000C038D1050CF04ECF48CFDF91CF911F911D
:10353000089590E0FC013197E231F10508F04CC0AC
:10354000EC57FF4F0C94C121809180008F7703C00E
:10355000809180008F7D809380000895809180000D
:10356000877FF9CF84B58F7702C084B58F7D84BD06
:1035700008958091B0008F7703C08091B0008F7D57
:103580008093B0000895809190008F7707C080915C
:1035900090008F7D03C080919000877F8093900082
:1035A00008958091A0008F7707C08091A0008F7D43
:1035B00003C08091A000877F8093A0000895809130
:1035C00020018F7707C0809120018F7D03C08091FB
:1035D0002001877F809320010895CF93DF9390E0AF
:1035E000FC01E459FD4F2491FC01EE54FD4F849100
:1035F000882349F190E0880F991FFC01EE5EFC4F93
:10360000A591B49188509D4FFC01C591D4919FB76D
:10361000611108C0F8948C91209582238C93888145
:1036200082230AC0623051F4F8948C91322F309585
:1036300083238C938881822B888304C0F8948C9197
:10364000822B8C939FBFDF91CF9108950F931F938F
:10365000CF93DF931F92CDB7DEB7282F30E0F9016B
:10366000EA5DFD4F8491F901E459FD4F1491F90190
:10367000EE54FD4F04910023C9F0882321F06983A3
:103680000E94991A6981E02FF0E0EE0FFF1FE850C9
:10369000FD4FA591B4919FB7F8948C91611103C02F
:1036A0001095812301C0812B8C939FBF0F90DF91D8
:1036B000CF911F910F910895FC01818D228D90E093
:1036C000805C9F4F821B91098F7399270895FC019D
:1036D000918D828D981731F0828DE80FF11D858DC7
:1036E00090E008958FEF9FEF0895FC01918D828DFA
:1036F000981761F0828DDF01A80FB11D5D968C9146
:10370000928D9F5F9F73928F90E008958FEF9FEF50
:10371000089580E39DE1892B41F088E093E1892BB6
:1037200021F00E94301D811125C080E090E0892B9E
:1037300041F080E090E0892B21F00E94000081118F
:103740001CC080E090E0892B41F080E090E0892B64
:1037500021F00E940000811113C080E090E0892BCD
:10376000A1F080E090E0892B81F00E94000081119F
:103770000AC008950E940813D8CF0E940000E1CF2C
:103780000E940000EACF0C9400000895FC01848D93
:10379000DF01A80FB11DA35ABF4F2C91848D90E07B
:1037A00001968F739927848FA689B7892C93A08956
:1037B000B1898C9180648C93938D848D981306C00D
:1037C0000288F389E02D80818F7D80830895CF93D7
:1037D000DF93EC01888D8823C9F0EA89FB89808119
:1037E00085FD05C0A889B9898C9186FD0FC00FB6EB
:1037F00007FCF5CF808185FFF2CFA889B9898C912C
:1038000085FFEDCFCE010E94C61BE7CFDF91CF91A0
:103810000895CF92DF92FF920F931F93CF93DF9380
:103820001F92CDB7DEB76C0181E0D60158968C931C
:1038300058975B969C915B975C968C915C979813DC
:1038400007C05096ED91FC915197808185FD2EC067
:10385000F601038D10E00F5F1F4F0F731127F02E3D
:10386000F601848DF81211C00FB607FCF9CFD6010E
:103870005096ED91FC915197808185FFF1CFC60163
:1038800069830E94C61B6981EBCF838DE80FF11D10
:10389000E35AFF4F6083D6015B960C935B97529679
:1038A000ED91FC915397808180620CC0D6015696B1
:1038B000ED91FC91579760835096ED91FC91519753
:1038C00080818064808381E090E00F90DF91CF91D0
:1038D0001F910F91FF90DF90CF900895BF92CF92EC
:1038E000DF92EF92FF92CF93DF93EC016A017B01AD
:1038F000B22EE889F98982E08083411581EE58076C
:1039000061057105A1F060E079E08DE390E0A70129
:1039100096010E9480212150310941095109569593
:10392000479537952795211580E1380798F0E88964
:10393000F989108260E874E88EE190E0A7019601B1
:103940000E9480212150310941095109569547951E
:1039500037952795EC85FD853083EE85FF8520839F
:10396000188EEC89FD89B082EA89FB8980818061AB
:103970008083EA89FB89808188608083EA89FB896A
:10398000808180688083EA89FB8980818F7D808344
:10399000DF91CF91FF90EF90DF90CF90BF9008958F
:1039A0001F920F920FB60F9211240BB60F922F9306
:1039B0008F939F93EF93FF93E0912216F09123163C
:1039C0008081E0912816F091291682FD12C0908125
:1039D00080912B168F5F8F7320912C16821751F0D8
:1039E000E0912B16F0E0EE5EF94E958F80932B164A
:1039F00001C08081FF91EF919F918F912F910F9046
:103A00000BBE0F900FBE0F901F9018951F920F9234
:103A10000FB60F9211240BB60F922F933F934F9333
:103A20005F936F937F938F939F93AF93BF93EF9326
:103A3000FF9382E196E10E94C61BFF91EF91BF9137
:103A4000AF919F918F917F916F915F914F913F9136
:103A50002F910F900BBE0F900FBE0F901F901895D7
:103A600082E196E10E945C1B21E0892B09F420E0B1
:103A7000822F0895109215161092141688EE93E076
:103A8000A0E0B0E08093161690931716A093181636
:103A9000B093191680E89DE0909313168093121648
:103AA00085EC90E090931F1680931E1684EC90E0B6
:103AB000909321168093201680EC90E0909323162B
:103AC0008093221681EC90E0909325168093241623
:103AD00082EC90E0909327168093261686EC90E077
:103AE000909329168093281610922B1610922C165C
:103AF00010922D1610922E16089508950E944C19BA
:103B00000E947D1D0E940612C9E8DBE10E94650E3D
:103B10002097E1F30E94891BF9CFCF92DF92EF92B9
:103B2000FF920F931F93CF93DF936C017A01EB0108
:103B3000E60EF71E00E010E0CE15DF0561F069919A
:103B4000D601ED91FC910190F081E02DC60119950F
:103B5000080F191FF1CFC801DF91CF911F910F916D
:103B6000FF90EF90DF90CF9008956115710581F07F
:103B7000DB010D900020E9F7AD0141505109461BD2
:103B8000570BDC01ED91FC910280F381E02D19943B
:103B900080E090E008950C94B51DDC01ED91FC915E
:103BA0000190F081E02D19946CE87DE00C94B51D36
:103BB0000F931F93CF93DF93EC010E94B51D8C01EF
:103BC000CE010E94D41D800F911FDF91CF911F91D4
:103BD0000F9108958F929F92AF92BF92CF92DF92F2
:103BE000EF92FF920F931F93CF93DF93CDB7DEB782
:103BF000A1970FB6F894DEBF0FBECDBF7C01C42ED7
:103C0000E52FCB01D22E19A221E02D1510F02AE0CC
:103C1000D22E8E010F5D1F4F8D2C912CA12CB12C1B
:103C20006C2D7E2FA50194010E9480218C2DD29EA7
:103C300080191124015011098A3014F4805D01C0EB
:103C4000895CF8018083211531054105510521F07A
:103C5000C22EE32FCA01E4CFB801C7010E94B51DEF
:103C6000A1960FB6F894DEBF0FBECDBFDF91CF9106
:103C70001F910F91FF90EF90DF90CF90BF90AF908A
:103C80009F908F900895CF92DF92EF92FF920F93C3
:103C90001F93CF93DF93EC016A017B01211531055E
:103CA00079F4E881F9810190F081E02D642FDF91B2
:103CB000CF911F910F91FF90EF90DF90CF901994CB
:103CC0002A303105E9F477FF1AC06DE20E94CD1D5C
:103CD0008C0144275527BA014C195D096E097F09EB
:103CE0002AE0CE010E94EA1D800F911FDF91CF9143
:103CF0001F910F91FF90EF90DF90CF9008952AE0F1
:103D0000B701A601CE01DF91CF911F910F91FF90D6
:103D1000EF90DF90CF900C94EA1D9A01AB016627DB
:103D200057FD6095762F0C94431E0F931F93CF93EE
:103D3000DF93EC019A01AB01662757FD6095762F62
:103D40000E94431E8C01CE010E94D41D800F911F42
:103D5000DF91CF911F910F9108952115310541F405
:103D6000DC01ED91FC910190F081E02D642F19941C
:103D70000C94EA1D0F931F93CF93DF93EC019A01EC
:103D8000462F50E060E070E00E94AD1E8C01CE0135
:103D90000E94D41D800F911FDF91CF911F910F9131
:103DA000089508955058BB27AA270ED075C166D133
:103DB00030F06BD120F031F49F3F11F41EF45BC161
:103DC0000EF4E095E7FB51C1E92F77D180F3BA17E4
:103DD000620773078407950718F071F49EF58FC189
:103DE0000EF4E0950B2EBA2FA02D0B01B901900116
:103DF0000C01CA01A0011124FF27591B99F0593F5A
:103E000050F4503E68F11A16F040A22F232F342FA1
:103E10004427585FF3CF469537952795A795F040EF
:103E20005395C9F77EF41F16BA0B620B730B840B04
:103E3000BAF09150A1F0FF0FBB1F661F771F881FBC
:103E4000C2F70EC0BA0F621F731F841F48F4879514
:103E500077956795B795F7959E3F08F0B3CF939503
:103E6000880F08F09927EE0F979587950895D9D078
:103E700008F481E008950CD00FC107D140F0FED0C6
:103E800030F021F45F3F19F0F0C0511139C1F3C097
:103E900014D198F39923C9F35523B1F3951B550B0E
:103EA000BB27AA2762177307840738F09F5F5F4F0D
:103EB000220F331F441FAA1FA9F333D00E2E3AF04E
:103EC000E0E830D091505040E695001CCAF729D068
:103ED000FE2F27D0660F771F881FBB1F26173707B7
:103EE0004807AB07B0E809F0BB0B802DBF01FF27E7
:103EF00093585F4F2AF09E3F510568F0B6C000C14D
:103F00005F3FECF3983EDCF3869577956795B79520
:103F1000F7959F5FC9F7880F911D9695879597F93B
:103F20000895E1E0660F771F881FBB1F62177307B4
:103F30008407BA0720F0621B730B840BBA0BEE1FC9
:103F400088F7E095089504D06894B111D9C0089518
:103F5000BCD088F09F5790F0B92F9927B751A0F0A7
:103F6000D1F0660F771F881F991F1AF0BA95C9F70D
:103F700012C0B13081F0C3D0B1E00895C0C0672F46
:103F8000782F8827B85F39F0B93FCCF386957795BD
:103F90006795B395D9F73EF49095809570956195A6
:103FA0007F4F8F4F9F4F0895E89409C097FB3EF4D1
:103FB00090958095709561957F4F8F4F9F4F992376
:103FC000A9F0F92F96E9BB279395F69587957795F4
:103FD0006795B795F111F8CFFAF4BB0F11F460FFB4
:103FE0001BC06F5F7F4F8F4F9F4F16C0882311F00C
:103FF00096E911C0772321F09EE8872F762F05C020
:10400000662371F096E8862F70E060E02AF09A95BA
:10401000660F771F881FDAF7880F9695879597F9AF
:104020000895990F0008550FAA0BE0E8FEEF161649
:104030001706E807F907C0F012161306E407F5079C
:1040400098F0621B730B840B950B39F40A2661F010
:10405000232B242B252B21F408950A2609F4A140B3
:10406000A6958FEF811D811D089597F99F6780E8C0
:1040700070E060E008959FEF80EC089500240A94BA
:104080001616170618060906089500240A94121633
:104090001306140605060895092E0394000C11F466
:1040A000882352F0BB0F40F4BF2B11F460FF04C013
:1040B0006F5F7F4F8F4F9F4F089557FD9058440F6C
:1040C000551F59F05F3F71F04795880F97FB991F77
:1040D00061F09F3F79F08795089512161306140634
:1040E000551FF2CF4695F1DF08C0161617061806C1
:1040F000991FF1CF86957105610508940895E8949C
:10410000BB2766277727CB0197F908958ADF08F444
:104110008FEF08950BD0C0CFB1DF28F0B6DF18F0D5
:10412000952309F0A2CFA7CF1124EACFC6DFA0F3D1
:10413000959FD1F3950F50E0551F629FF001729F3C
:10414000BB27F00DB11D639FAA27F00DB11DAA1F5B
:10415000649F6627B00DA11D661F829F2227B00DA8
:10416000A11D621F739FB00DA11D621F839FA00D33
:10417000611D221F749F3327A00D611D231F849F83
:10418000600D211D822F762F6A2F11249F575040DA
:104190008AF0E1F088234AF0EE0FFF1FBB1F661F75
:1041A000771F881F91505040A9F79E3F510570F02E
:1041B0005CCFA6CF5F3FECF3983EDCF38695779516
:1041C0006795B795F795E7959F5FC1F7FE2B880F29
:1041D000911D9695879597F908959F932AD00F90F2
:1041E00007FCEE5F4DC0DF93CF931F930F93FF92B9
:1041F000EF92DF927B018C01689405C0DA2EEF010B
:1042000095DFFE01E894A591259135914591559151
:10421000AEF3EF01D9DDFE019701A801DA9479F739
:10422000DF90EF90FF900F911F91CF91DF91089554
:1042300022CF4BDFE8F3E894E0E0BB279F57F0F094
:104240002AED3FE049EC06C0EE0FBB0F661F771F5B
:10425000881F28F0B23A62077307840728F0B25A21
:10426000620B730B840BE3959A9572F7803830F4E8
:104270009A95BB0F661F771F881FD2F7904813C00F
:10428000EF93E0FF06C0A2EA2AED3FE049EC5FEBC6
:104290009BDD02DF0F90039401FC9058ECE2F1E00B
:1042A0000EC09F3F31F0915020F487957795679528
:1042B000B795880F911D9695879597F908959F93C7
:1042C0008F937F936F93FF93EF939B01AC0122DF5A
:1042D000EF91FF9188DF2F913F914F915F911ACF1E
:1042E000DB018F939F930E94CE21BF91AF91A29F3C
:1042F000800D911DA39F900DB29F900D11240895E4
:10430000A1E21A2EAA1BBB1BFD010DC0AA1FBB1FD9
:10431000EE1FFF1FA217B307E407F50720F0A21B4B
:10432000B30BE40BF50B661F771F881F991F1A94B8
:1043300069F760957095809590959B01AC01BD01E2
:10434000CF010895052E97FB1EF400940E94B92119
:1043500057FD07D00E94802107FC03D04EF40C9437
:10436000B92150954095309521953F4F4F4F5F4F64
:10437000089590958095709561957F4F8F4F9F4FD1
:104380000895EE0FFF1F0590F491E02D19940E94FF
:10439000DD21B7FF0895821B930B08950E94DD2154
:1043A000A59F900DB49F900DA49F800D911D112489
:1043B00008950790F691E02D1994A29FB001B39F44
:1043C000C001A39F700D811D1124911DB29F700D1E
:1043D000811D1124911D08958F929F92AF92BF92DB
:1043E000CF92DF92EF92FF920F931F93CF93DF93C1
:1043F0008B016115710521F0DB018C9311969C9363
:10440000EC015E01BFEFAB1ABB0A7501C8808C2DB1
:1044100090E00E945D23892B11F0E501F2CFEDE2DF
:10442000CE1208C07E01F2E0EF0EF11CC980DD243F
:10443000D39409C02BE2C21205C07E0142E0E40E13
:10444000F11CC980D12CE701219743E050E064E3DF
:1044500073E0CE010E946523892BC1F4239645E0C9
:1044600050E06FE273E0CE010E946523892B09F4CE
:1044700025960115110519F0D801CD93DC93D110C3
:1044800006C160E070E080E89FE70AC143E050E0C9
:104490006CE273E0CE010E946523892B59F401156B
:1044A000110509F4F9C0B2E0EB0EF11CF801F1823C
:1044B000E082F2C0F70160E070E0CB01C0E0D0E044
:1044C0007F01A0EDAA2EAC0C29E02A1530F14D2D6C
:1044D0004260B42E2D2D2870D2FE04C0211125C0BB
:1044E000219623C021112197A5E0B0E09B01AC01EA
:1044F0000E94CE21660F771F881F991F6A0D711DBC
:10450000811D911D6839A9E97A078A07A9E19A07EF
:1045100060F0BD2DB660BB2E08C02EEFA2120AC0FF
:10452000D3FC50C04D2D4860B42E3196D701CC90AD
:10453000DB2CC6CF2C2D2F7D253409F043C0A08164
:10454000AD3241F4BD2DB061DB2E7F0122E0E20EE1
:10455000F11C0CC07F01AB3231F04FEFE41AF40ACA
:1045600021E030E006C0A2E0EA0EF11CA18122E0C9
:1045700030E0A053AA3018F0E21AF30A23C0F70182
:1045800020E030E02038BCE03B075CF4A901440F98
:10459000551F440F551F240F351F220F331F2A0F9D
:1045A000311DAF014F5F5F4F7A01A081A053AA3048
:1045B00010F4FA01E7CFD4FE03C0319521953109FB
:1045C000C20FD31FD1FE09C00115110531F0E1E082
:1045D000EE1AF108D801ED92FC920E94D41F2D2D05
:1045E0002370233019F04B015C0106C04B015C01C4
:1045F000B7FAB094B7F8B09420E030E0A901C50153
:10460000B4010E94371F882309F43EC0D7FF06C0BB
:10461000D195C195D1090BE413E002C003E613E084
:104620006801B8E1CB1AD10890E2E92EF12CCE1541
:10463000DF0574F0F8012591359145915491C5013C
:10464000B4010E948A204B015C01CE19DF09EFCF33
:1046500004501109F594E7940C151D0541F78A2DB6
:10466000880F8B2D881F8F3F49F020E030E0A90193
:10467000C501B4010E94371F811106C082E290E09B
:104680009093B0168093AF16C501B40109C060E0E5
:1046900070E080E89FEF04C060E070E080EC9FE78E
:1046A000DF91CF911F910F91FF90EF90DF90CF900E
:1046B000BF90AF909F908F90089591113FC080322E
:1046C00019F089508550D0F70895FB01DC01415065
:1046D000504088F08D9181341CF08B350CF4805E55
:1046E000659161341CF06B350CF4605E861B6111C2
:1046F00071F3990B0895881BFCCFFC0181918617FB
:1047000021F08823D9F7992708953197CF0108958B
:10471000F999FECF92BD81BDF89A992780B5089589
:10472000262FF999FECF1FBA92BD81BD20BD0FB6CD
:10473000F894FA9AF99A0FBE019608959927882756
:064740000895F894FFCF7C
:104746000000960096009600960096000000000075
:104756000000000000000A00EE02FFFFFFFFFFFF5F
:10476600FFFF000000000000000000002800EE022D
:10477600FFFFFFFFFFFFFFFF00000000000000003B
:10478600000064009B039B039B039B039B030000A9
:104796000000000000000000000096009600960051
:1047A6009600960000000000000000000000FFFFD9
:1047B600FFFFFFFFFFFFFFFFFFFF000000000000FD
:1047C60000000000FFFFFFFFFFFFFFFFFFFFFFFFEF
:1047D60000000000000000000000640096009B033B
:1047E6009B039B039B0300000000000000000000E9
:1047F600000096009B039B039B039B0300000000A5
:10480600000000000000FFFFFFFFFFFFFFFFFFFFAC
:10481600FFFF00000000000000000000FFFFFFFF98
:10482600FFFFFFFFFFFFFFFF00000000000000008A
:10483600000064009B039B039B039B039B030000F8
:10484600000000000000000000009B0396009B0390
:104856009B039B0300000000000000000000FFFF18
:10486600FFFFFFFFFFFFFFFFFFFF0000000000004C
:1048760000000000FFFFFFFFFFFFFFFFFFFFFFFF3E
:104886000000000000000000000064009B039B0382
:104896009B039B039B030000000000000000000038
:1048A6000000960096009600960096000000000014
:1048B6000000000000000A00BC02FFFFFFFFFFFF30
:1048C600FFFF000000000000000000002800BC02FE
:1048D600FFFFFFFFFFFFFFFF0000000000000000DA
:1048E60000006400EE029B0396009600960000000E
:1048F60000000000000000000000960096009600F0
:1049060096009600000000000000000000000A006B
:10491600EE02FFFFFFFFFFFFFFFF000000000000A9
:10492600000000002800EE02FFFFFFFFFFFFFFFF71
:1049360000000000000000000000640020039B034C
:104946009B03960096000000000000000000000097
:1049560001210A090AA80BD805E905FA051006225D
:10496600063406220D44656D6F2073746172746996
:104976006E670044656D6F20636F6D706C6574655E
:10498600000A53746172742075702064656D6F201F
:104996006D6F6465204F4E00456E74657220413020
:1049A60020746F2064697361626C65207468697332
:1049B600206D6F6465005468652068616E642069C7
:1049C60073206F6E6C7920726573706F6E73697683
:1049D6006520746F2073657269616C20636F6D6DFD
:1049E600616E6473200A61742074686520656E6464
:1049F600206F6620656163682064656D6F2063794A
:104A0600636C650047726970204368616E67650074
:104A160047726970200041726D204F50454E00412B
:104A2600726D20434C4F5345004D30203D200020F1
:104A3600205430203D200020204E30203D200020F4
:104A4600204130203D20002020202020204D3120F4
:104A56003D200020205431203D200020204E3120D2
:104A66003D200020204131203D20002020204449C7
:104A76005220002020202020202020204F70656E0C
:104A86002042696F6E6963732053657269616C2099
:104A9600436F6D6D616E6473202D2041727469637E
:104AA600686F6B6520005F5F5F5F5F5F5F5F5F5F83
:104AB6005F5F5F5F5F5F5F5F5F5F5F5F5F5F5F5F00
:104AC6005F5F5F5F5F5F5F5F5F5F5F5F5F5F5F5FF0
:104AD6005F5F5F5F5F5F5F5F5F5F5F5F5F5F5F5FE0
:104AE6005F004772697020436F6E74726F6C202886
:104AF60047232900436F6D6D616E642020202020BE
:104B06004465736372697074696F6E004730202064
:104B16002020202020202020466973740047312061
:104B260020202020202020202050616C6D0047325C
:104B3600202020202020202020205468756D6273BC
:104B460020557000473320202020202020202020C0
:104B5600506F696E740047342020202020202020CA
:104B6600202050696E6368004735202020202020D1
:104B760020202020547269706F640046696E676554
:104B86007220436F6E74726F6C202846232C20505F
:104B960023232C20532323290046232020202020B2
:104BA600202020202046696E6765722C2077686574
:104BB60072652023206973207468652066696E67B4
:104BC6006572206E756D62657220284630202D2034
:104BD600463429004623205035302020202020202E
:104BE60046696E676572202320746F20706F736943
:104BF60074696F6E20353020285030202D205031BA
:104C060030302900462320533235352020202020FD
:104C160046696E676572202320617420737065652E
:104C26006420323535202853302D5332353529004E
:104C3600446972656374696F6E20284F2C2043297E
:104C4600002323204F20202020202020204F706585
:104C56006E2C207768657265202323206973206196
:104C66002047726970206F722046696E67657220F0
:104C7600636F6D6D616E6400232320432020202026
:104C860020202020436C6F73652C20776865726541
:104C960020232320697320612047726970206F7278
:104CA6002046696E67657220636F6D6D616E640084
:104CB6004D7573636C6520436F6E74726F6C20283C
:104CC6004D232C2055232C2054232C204E29004DD7
:104CD60030202020202020202020204D7573636C5A
:104CE6006520636F6E74726F6C204F4646004D31BF
:104CF600202020202020202020205374616E646113
:104D06007264206D7573636C6520636F6E74726F69
:104D16006C204F4E004D32202020202020202020C5
:104D2600204D7573636C6520706F736974696F6E5F
:104D360020636F6E74726F6C204F4E004D332020CF
:104D46002020202020202020546F67676C65207764
:104D560068657468657220746F20646973706C612D
:104D660079206D7573636C652072656164696E6721
:104D76007300552323232020202020202020436851
:104D8600616E6765206D7573636C652073656E7300
:104D96006F722073656E73697469766974790054ED
:104DA60023232320202020202020204368616E67B3
:104DB6006520276D7573636C6520686F6C642720AA
:104DC60067726970206368616E67652064757261D9
:104DD60074696F6E004E2020202020202020202085
:104DE6002043616C63756C617465206E6F697365D1
:104DF60020666C6F6F7200416476616E6365642035
:104E060053657474696E6773202841232C203F29EB
:104E160000413020202020202020202020546F67B1
:104E2600676C65202744656D6F204D6F646527208C
:104E36004F4E2F4F46460041312020202020202073
:104E4600202020546F67676C65202753657269615F
:104E56006C20436F6D6D616E647320496E7374725E
:104E6600756374696F6E7327204F4E2F4F46460049
:104E7600413220202020202020202020546F6767E8
:104E86006C6520274D7573636C6520477261706889
:104E9600206D6F646527204F4E2F4F4646004133E5
:104EA60020202020202020202020456E61626C6575
:104EB6002F44697361626C65206D6F746F72730045
:104EC600413520202020202020202020456D65729D
:104ED60067656E63792073746F70206D6F746F727F
:104EE60073003F20202020202020202020204469FD
:104EF60073706C61792073657269616C20636F6D84
:104F06006D616E6473206C697374000A0A0A004549
:104F160078616D706C6573004730204F202020202B
:104F260020202020466973742047726970204F70D4
:104F3600656E004732204320202020202020205468
:104F460068756D627320557020436C6F73650046FB
:104F560030204F20202020202020205468756D62AC
:104F6600204F70656E004630202020202020202013
:104F76002020546F67676C65207468756D622064C5
:104F86006972656374696F6E20286F70656E2F6332
:104F96006C6F736529004634205035302020202060
:104FA600202050696E6B7920746F20706F7369745E
:104FB600696F6E2035300046312050353020533829
:104FC600302020496E6465782066696E67657220B8
:104FD600746F20706F736974696F6E20353020614D
:104FE60074207370656564203830004630204F2089
:104FF600533230302020205468756D62204F706522
:105006006E20617420737065656420323030004F05
:1050160070656E2042696F6E696373202D20417240
:10502600746963686F6B65002048616E6400537431
:10503600616E64617264204D7573636C6520436FA5
:105046006E74726F6C204F4E004D7573636C6520E5
:10505600506F736974696F6E20436F6E74726F6CF4
:10506600204F4E0047726970204368616E67652065
:105076004D6F6465200043616C63756C6174696E85
:1050860067206E6F697365207468726573686F6CEC
:10509600642C20706C65617365207374617920726D
:1050A600656C617865642E00436F6D706C65746520
:1050B600002A2A2A2A656E64206F66206172726150
:1050C600792A2A2A2A0046696E6765722000446991
:1050D60072656374696F6E200053746F7020506F31
:1050E600736974696F6E20004E6F6E65005370654C
:1050F6006564200044656D6F206D6F646520746F74
:1051060067676C65642000496E697469616C207319
:10511600657269616C20696E737472756374696F08
:105126006E7320746F67676C656420004D757363DA
:105136006C65206772617068206D6F646520746F9E
:1051460067676C656420004D6F746F72732000533F
:10515600746F70204D6F746F7273004D7573636C4E
:105166006520636F6E74726F6C204F464620004454
:105176006973706C6179206D7573636C65207265F7
:105186006164696E6773200048616E6420697320EC
:105196000044656D6F204D6F64650020546865207E
:1051A60068616E64206973206F6E6C792072657316
:1051B600706F6E7369766520746F207365726961AE
:1051C6006C20636F6D6D616E64730A206174207468
:1051D600686520656E64206F66206561636820647B
:1051E600656D6F206379636C65004D7573636C65DF
:1051F6002073656E736F722073656E73697469765A
:10520600697479200047726970206368616E67650A
:1052160020686F6C64206475726174696F6E20001B
:10522600496E697469616C6973696E67204545509A
:10523600524F4D2076616C7565732E2E2E00537479
:105246006172746564005269676874004C656674BF
:105256000044697361626C656400456E61626C65E9
:10526600640046696E67657220526F6C6C00455229
:10527600524F52202D20546F6F206D616E79205F42
:1052860066696E67657273206174746163686564CC
:1052960000202000506F7320004572722000446980
:1052A600722000526561636865642000000000009A
:1052B6001A17ED16C216CA16DD16EC160000000007
:1052C600091C8D1D5C1B751B671BE71B0D0A006EF9
:0C52D600616E00696E66006F7666000075
:00000001FF
